:030000000212C722
:0C12C700787FE4F6D8FD75811B020D1D38
:1008FB00536D6F61666C696500323032332F30385F
:10090B002F3032370041534349493A00434F444556
:10091B003A0000784CC48484000000FC0C040000F6
:10092B0000F83CE08080C0603018F0000000001040
:10093B00F8080CE42426260602FE03000000000043
:10094B000000E0C0406000E0C0600000002000003C
:10095B0000C000800000C080C04000406030109894
:10096B00888888881830604000000000000000C0B4
:10097B0060207018080C040484F41C0404040404A0
:10098B000602F21E0202020282FE020202020206AC
:10099B00F41C000C0C04060308080F0904040404DF
:1009AB001C07000001010000000701000000007C93
:1009BB002720282D272020202F39000000000000A1
:1009CB00020301070004070101060C0001000004EB
:1009DB0026231F190C0603070C1810000003E98DC2
:1009EB0084C4641D03020000000000000000000727
:1009FB00040404745C40C0F88F80808080C0404049
:100A0B00705F4140404040705F4040404040603824
:100A1B000F00000000E01008080810E000000000C4
:100A2B000000E01008080810E00000C0308888883B
:100A3B0088000000C03010080808081030C0000003
:100A4B00F800000000000000F80808080808000083
:100A5B00F808080808081020C0000000FC242464D3
:100A6B00A42424A4E464243C000404F454545E54ED
:100A7B0054545E5454F404040000000000000000C1
:100A8B00000000000000000000000000000000005B
:100A9B0000000000000F10202020100F000030304D
:100AAB0000000011222222190700000F1120202024
:100ABB00110F00000718102020202010180700002D
:100ACB003F202020202020003F2121212120000039
:100ADB003F20202020201008070040301F084969C4
:100AEB003F0909097F090909082024157D151517E8
:100AFB007D15555D751524200000000000000000D9
:100B0B0000000000000000000000000000000000DA
:100B1B0000000000000000000000000000000000CA
:100B2B0000000000000000000000000000000000BA
:100B3B0000000000000000000000000000000000AA
:100B4B00000000000000000000000000000000009A
:100B5B00000000000000000000000000000000008A
:100B6B000000000000000000000000C070180C0422
:100B7B00060203010101FF0000000000000000005D
:100B8B00000000000000000000000000000000005A
:100B9B000000000000902040F010D01010F000E09A
:100BAB0000F00000106040008080808080F080901A
:100BBB00A08010D01010D05050D05050D01010D06A
:100BCB0010109090909090D0B0909090909090103A
:100BDB00000000000000000000000000000000000A
:100BEB0080E020301010180808081F0100000000DA
:100BFB000000000000F80F000000000000000000E3
:100C0B0000000000000000000000000000000000D9
:100C1B000000000000C13B009F603F40C09F003FB1
:100C2B0000FF000202FEC0E084847C44441FE0808D
:100C3B0000E000FF8080BF92929F9292BF8080FF66
:100C4B000000FF808080FF949494FF808080FF00E1
:100C5B00000000000000000000000080C040407C4D
:100C6B0047C2C2C2C2C6C682828202000000000016
:100C7B00000000C0780F0000000000000000000022
:100C8B000000000000000000000000000000000059
:100C9B000000000000010001000000000000010145
:100CAB000101000001000000000000000000000135
:100CBB000100000000000000000000000000000127
:100CCB000000010000000000000000000000010017
:100CDB0000000000000000000000001F101030207A
:100CEB002020202020202020202020202030101009
:100CFB00180E0301000000000000000000000000BF
:100D0B0000000000000000000000000000000000D8
:020D1B000000D6
:100D1D00750820120EDB7F011212A07F011211F84F
:100D2D00750C40750DFF750E09750F1D7B80E4FD6B
:100D3D00FF1211167FF47E0112126E121236750C0F
:100D4D0010E4FBFDFF121003750C107B01E4FD7F19
:100D5D0012121003750C107B02E4FD7F2412100398
:100D6D00750C107B03E4FD7F36121003750C107BA0
:100D7D0004E4FD7F48121003750C107B05E4FD7F24
:100D8D005A121003750C107B06E4FD7F6C121003D4
:100D9D007BFF7A0879FB750E107D027F0812117E9C
:100DAD007BFF7A097904750E107D047F1412117E74
:100DBD007BFF7A097910750E107D06E4FF12117E06
:100DCD007BFF7A097917750E107D067F3F12117E14
:100DDD00751610AB087D067F30120E140508E50858
:100DED00D3947E4003750820E508FB7A00750D034A
:100DFD00750E107D067F6712108D7FF47E01121225
:070E0D006E121236020D2DDA
:100003000000000000000000002F000000000700B7
:10001300070000147F147F1400242A7F2A12006231
:1000230064081323003649552250000005030000DD
:1000330000001C224100000041221C000014083E65
:1000430008140008083E0808000000A0600000082B
:10005300080808080000606000000020100804027F
:10006300003E5149453E0000427F4000004261513D
:100073004946002141454B31001814127F100027D7
:1000830045454539003C4A4949300001710905039A
:1000930000364949493600064949291E00003636CB
:1000A300000000005636000000081422410000142E
:1000B300141414140000412214080002015109060B
:1000C30000324959513E007C1211127C007F49498C
:1000D3004936003E41414122007F4141221C007FBD
:1000E30049494941007F09090901003E4149497ACB
:1000F300007F0808087F0000417F41000020404145
:100103003F01007F08142241007F40404040007FB0
:10011300020C027F007F0408107F003E4141413EF4
:10012300007F09090906003E4151215E007F09193C
:1001330029460046494949310001017F0101003F39
:100143004040403F001F2040201F003F4038403FB9
:10015300006314081463000708700807006151491D
:10016300454300007F41410000552A552A550000B0
:1001730041417F000004020102040040404040402E
:10018300000001020400002054545478007F4844C6
:10019300443800384444442000384444487F0038FD
:1001A3005454541800087E0901020018A4A4A47C26
:1001B300007F080404780000447D400000408084F0
:1001C3007D00007F102844000000417F4000007C38
:1001D30004180478007C0804047800384444443844
:1001E30000FC242424180018242418FC007C080490
:1001F300040800485454542000043F444020003C69
:100203004040207C001C2040201C003C4030403CEF
:10021300004428102844001CA0A0A07C004464547F
:100223004C441414141414140000000000000000C3
:100233000000000000000000000000F800000000C3
:10024300000000333000000000100C06100C060004
:10025300000000000000000040C07840C07840006B
:10026300043F04043F040400007088FC08300000CD
:10027300001820FF211E0000F008F000E018000025
:1002830000211C031E211E0000F0088870000000DE
:100293001E2123241927211010160E000000000030
:1002A3000000000000000000000000E0180402004D
:1002B300000000071820400000020418E0000000BE
:1002C3000040201807000000404080F080404000BC
:1002D3000202010F01020200000000F00000000012
:1002E3000101011F010101000000000000000000E6
:1002F30080B070000000000000000000000000005B
:1003030000010101010101010000000000000000E3
:10031300003030000000000000000000806018047E
:10032300006018060100000000E010080810E0005B
:10033300000F102020100F00001010F80000000024
:100343000020203F2020000000700808088870006B
:1003530000302824222130000030088888483000EB
:100363000018202020110E000000C02010F800000B
:1003730000070424243F240000F8088888080800A4
:100383000019212020110E0000E0108888180000B9
:10039300000F112020110E0000380808C83808008B
:1003A3000000003F0000000000708808088870000B
:1003B300001C222121221C0000E010080810E0008C
:1003C3000000312222110F00000000C0C000000015
:1003D300000000303000000000000080000000003A
:1003E3000000806000000000000080402010080032
:1003F30000010204081020004040404040404000FB
:1004030004040404040404000008102040800000D5
:100413000020100804020100007048080808F000DA
:100423000000003036010000C030C828E810E000AA
:100433000718272423140B000000C038E000000035
:10044300203C23020227382008F88888887000009F
:10045300203F202020110E00C03008080808380073
:10046300071820202010080008F808080810E000EA
:10047300203F202020100F0008F88888E80810008B
:10048300203F20202320180008F88888E80810005F
:10049300203F200003000000C03008080838000097
:1004A30007182020221E020008F808000008F80898
:1004B300203F210101213F20000808F8080800001F
:1004C3000020203F2020000000000808F808080052
:1004D300C08080807F00000008F888C028180800CA
:1004E300203F20012638200008F808000000000003
:1004F300203F20202020300008F8F800F8F80800FA
:10050300203F003F003F200008F830C00008F808F3
:10051300203F200007183F00E01008080810E00003
:100523000F10202020100F0008F808080808F0001A
:10053300203F210101010000E01008080810E0003D
:100543000F18242438504F0008F8888888887000D2
:10055300203F2000030C3020007088080808380072
:100563000038202121221C00180808F80808180068
:100573000000203F2000000008F808000008F808E9
:10058300001F202020201F000878880000C838089A
:10059300000007380E010000F80800F80008F80012
:1005A300033C0700073C03000818688080681808AC
:1005B30020302C03032C30200838C800C83808002A
:1005C3000000203F2000000010080808C838080079
:1005D3002038262120201800000000FE020202001D
:1005E3000000007F40404000000C30C000000000CD
:1005F300000000010638C00000020202FE000000F5
:10060300004040407F00000000000402020204009A
:1006130000000000000000000000000000000000D7
:1006230080808080808080800002020400000000BF
:1006330000000000000000000000808080800000B7
:100643000019242222223F2008F8008080000000A5
:10065300003F112020110E00000000808080000068
:10066300000E112020201100000000808088F80077
:10067300000E112020103F200000808080800000A9
:10068300001F222222221300008080F0888888180D
:100693000020203F20200000000080808080800018
:1006A300006B94949493600008F8008080800000AD
:1006B300203F210000203F20008098980000000088
:1006C3000020203F202000000000008098980000B8
:1006D30000C08080807F000008F8000080808000D8
:1006E300203F24022D302000000808F800000000FD
:1006F3000020203F202000008080808080808000B8
:10070300203F20003F20003F808000808080000049
:10071300203F210000203F200000808080800000D7
:10072300001F202020201F00808000808000000008
:1007330080FFA12020110E00000000808080800037
:10074300000E112020A0FF80808080008080800028
:1007530020203F2120000100000080808080800055
:100763000033242424241900008080E080800000CA
:100773000000001F20200000808000000080800017
:10078300001F202020103F20808080000080808078
:1007930000010E3008060100808000800080808008
:1007A3000F300C030C300F0000808000808080002D
:1007B3000020312E0E312000808080000080808058
:1007C30080818E7018060100008080808080800008
:1007D3000021302C2221300000000000807C020226
:1007E30000000000003F404000000000FF00000048
:1007F30000000000FF0000000002027C80000000F7
:100803000040403F00000000000601010202040412
:100813000000000000000000000202F2121212F2B7
:10082300020202FE020202000000000F0404040F91
:100833000040807F00000000000000F8888C8A8957
:10084300888888F800000000000000FF4444444406
:10085300444444FF00000000100C4444444445C693
:100863004444444444140C008040201E2040407FF4
:10087300444444444440400000000C30C00001069E
:100883000080700E000000008080404020110A04A8
:100893000A1120404080800000F80C0B0808F84043
:1008A300308F080808F80000007F212121217F00F4
:1008B30000004380403F000000F808080808887FD4
:1008C3008808080808F8000000FF00080402010077
:1008D3000001024C807F0000100C44241484452640
:1008E3004484142444140C00040402FE4544444488
:0808F300444445FE0204040028
:10126E00EF4E60157D087C07ED1DAA0470011C4A27
:09127E0070F6EF1F70EA1E80E714
:011287002244
:0812DF007F01AE071FEE70FA5B
:0112E70022E4
:0912E800D291D290C291C2902271
:0712F100C291D290D29122BC
:0712F800D291D290C29022B6
:10125300E4FEC290EF30E704D2918002C291D290B3
:0A126300C290EF25E0FF0EBE08E880
:01126D00225E
:0A11C7001211D1E4FF1211D17F10C4
:1011D100AC071212E87F781212531212F8ED600474
:1011E1007F408002E4FF1212531212F8AF04121270
:0711F100531212F80212F183
:1012A000AB07EB7006FD7FA61211D1BB0107E4FD71
:0612B0007FA71211D122FC
:1011F800AB07EB700BFD7FC81211D17FA11211D183
:10120800BB010CE4FD7FC01211D17FA01211D122C5
:10121800AB07ED24B0FFE4FD1211D1EB54F0C45438
:0E1228000F4410FF1211D1EB540FFF0211D131
:1012B600E4FD7F8D1211D17F141211D17FAF02117F
:0112C600D156
:0C12D300E4FD7F8D1211CC7FAE0211D122
:10123600E4FBEB24B0FFE4FD1211C7E4FA7D01E400
:0C124600FF1211D10ABA80F50BBB08E6BC
:011252002279
:040E14008F138D1497
:100E1800E516C313F9F517E4F518F519E516B4083E
:100E280008751A00751B068029E516131313541F3D
:100E3800FF7E00E51654077C0060047D0180027D7A
:100E480000ED2FFFEC3EFEE9FD7C00120F9C8E1A90
:100E58008F1BEB24E0FAAD14AF13121218E4F51847
:100E6800F519C3E519951BE518951A5065E517FDA1
:100E78007C00AE18AF19120FAEED4C700FE516647A
:100E8800086009AD140514AF13121218E516B4085A
:100E98000F75F006EAA42403F582E5F03400801209
:100EA800E516B4102D75F010EAA4242BF582E5F0B0
:100EB8003402F583E5822519F582E5833518F58333
:100EC800E493FF7D011211D10519E51970940518F5
:020ED800809008
:010EDA0022F5
:041288008F13A90512
:10128C007F017E00AD0119ED6009AD137C00120FDA
:03129C009C80F142
:01129F00222C
:08108D008F098D0A8A0B8B0C00
:10109500E4F511F512E50EB40803751102E4F50F38
:1010A500E50FC3950D5069C3E50D950F14FD7F0A36
:1010B500121288AC0BAD0CCFCDCFCECCCE120FAE6D
:1010C5007C007D0A120FAE8D10E5127025E50D141A
:1010D500FFE50FC39F501BE5107014E50EC31325E4
:1010E50011850FF0A42509FF850E167B2080187544
:1010F5001201E50EC3132511850FF0A42509FFE59F
:10110500102430FB850E16AD0A120E14050F8090C3
:0111150022B7
:0A117E008F098D0A8B0B8A0C890D76
:10118800E4F50FAB0BAA0CA90D850F82758300122D
:101198000F6F602AAF0F050F8F82758300120F6FD4
:1011A800FB850E16AD0AAF09120E14E50EB408043D
:0E11B80074068004E50EC3132509F50980C5F1
:0111C6002206
:061003008F098D0AAA030B
:10100900E50C131313541FFF7E00E50C54077C00F5
:1010190060047D0180027D00ED2FFFEC3EFEAD0CEA
:101029007C00120F9C8E0F8F10E4F50DF50EC3E5B1
:101039000E9510E50D950F504AE50CFD7C00AE0D9F
:10104900AF0E120FAEED4C7009AD0A050AAF0912C9
:101059001218E50CB4102CEAC43354E0241BF582B1
:10106900E43408F583E582250EF582E583350DF52F
:1010790083E493FF7D011211D1050EE50E70AF05D2
:031089000D80AB2C
:01108C002241
:061116008F098D0A8B0B0E
:10111C00E4F510F511E50C131313541FFFE50C54F3
:10112C000760047E0180027E00EF2EF50CE4F512C0
:10113C00E512C3950C503AE512250AFDAF091212BF
:10114C0018E4F513E513C3950B5022AB0DAA0EA9A9
:10115C000F0511E511AE107002051014F5828E8387
:10116C00120F6FFF7D011211D1051380D70512806C
:01117C00BFB3
:01117D00224F
:100EDB00C2927FC87E0012126ED292E4FD7FAE12D8
:100EEB0011C77F401211D17F811211D17FCF121107
:100EFB00D17FA11211D17FC81211D17FA61211D1AE
:100F0B007FA81211D17F3F1211D17FD31211D1E4DF
:100F1B00FF1211D17FD51211D17F801211D17FD940
:100F2B001211D17FF11211D17FDA1211D17F12126E
:100F3B0011D17FDB1211D17F401211D17F20121101
:100F4B00D17F021211D17F8D1211D17F141211D1C9
:100F5B007FA41211D17FA61211D1121236E4FD7F9C
:040F6B00AF0211D1EF
:100F6F00BB010CE58229F582E5833AF583E0225037
:100F7F0006E92582F8E622BBFE06E92582F8E22281
:0D0F8F00E58229F582E5833AF583E493229B
:100F9C00EF8DF0A4A8F0CF8CF0A428CE8DF0A42E69
:020FAC00FE2223
:100FAE00BC000BBE0029EF8DF084FFADF022E4CC27
:100FBE00F875F008EF2FFFEE33FEEC33FCEE9DECF0
:100FCE00984005FCEE9DFE0FD5F0E9E4CEFD22ED36
:100FDE00F8F5F0EE8420D21CFEADF075F008EF2F80
:100FEE00FFED33FD4007985006D5F0F222C398FD71
:050FFE000FD5F0EA220E
:00000001FF
