:0300000002026495
:0C026400787FE4F6D8FD75816E0202ABD5
:0B07EE00B3F5CABCBBAFCDEAB3C90035
:10000E007F007EE11205511207CC7BFF7A0779EE55
:05001E001205B380FE95
:100584002020204F4B202020002020CAA7B0DC20B0
:100594002000D0A3D1E9BACDD3D0CEF300D5E2B2B6
:0F05A400BBCAC74153363038D3A6B4F0B0FC0001
:10051D008F568C578D587FEF1207DF7F011207DF43
:10052D007FFF1207DF7FFF1207DF7FFF1207DF7FDD
:10053D00FF1207DFAF561207DFE557FF1207DFAFD8
:04054D00580207DF6A
:0205E0008B5935
:1005E200EF2DFBE43CFAE5597583002BF55BE583BF
:1005F2003AF55A12051DAF591207DFE55AFF1207E5
:06060200DFAF5B0207DF21
:0602F0008C1F8D208B2104
:1002F600EF7C002520FDEC351FFCE5217A002DF56D
:1003060026EA3CF525AD20AC1F12051DAF211207CC
:10031600DF74FD2520F52074FF351FF51FE5201538
:1003260020AE1F7002151F4E6025AB22AA23A924FA
:100336001201502526F526E43525F5250524E52464
:100346007002052314F9120150FF1207DF80CEE573
:0A03560025FF1207DFAF260207DFC4
:060360008C288D298B2A78
:10036600EF7C002529F52FEC3528F52EAC28120553
:100376001DAF2A1207DF74FE2529F52974FF3528DB
:10038600F528E5291529AE28700215284E6025ABFB
:100396002BAA2CA92D120150252FF52FE4352EF569
:1003A6002E052DE52D7002052C14F9120150FF12B1
:0F03B60007DF80CEE52EFF1207DFAF2F0207DF34
:0B07F9007B017D037C007F010205E016
:10071C008F677522007523007524677B027D047C2E
:06072C00007F010202F053
:0B0804007B037D037C007F010205E008
:100628008F378C388D398A3A8B3B752200752300B9
:0E0638007524377B047D087C007F010202F0F0
:0B080F007B057D037C007F010205E0FB
:1006B8008F5C8C5D8D5E75220075230075245C7BD4
:0A06C800067D067C007F010202F0AF
:1006D2008F5F8C608D6175220075230075245F7BAE
:0A06E200077D067C007F010202F094
:100732008F687522007523007524687B087D047C10
:06074200007F010202F03D
:100748008F697522007523007524697B097D047CF7
:06075800007F010202F027
:0B081A007B0A7D037C007F010205E0EB
:0B0825007B0B7D037C007F010205E0DF
:04060800AB07AA068C
:10060C008A468B478C488D497522007523007524CA
:0C061C00467B0C7D077C007F010202F091
:0B0830007B0D7D037C007F010205E0D2
:1006EC008F658D667522007523007524657B0E7DE4
:0806FC00057C007F010202F001
:0B083B007B0F7D037C007F010205E0C5
:0B0846007B107D037C007F010205E0B9
:0B0851007B117D037C007F010205E0AD
:100664008F4D8E4C8D4B8C4A75220075230075245A
:0C0674004A7B127D077C007F010202F02F
:100680008F518E508D4F8C4E75220075230075242E
:0C0690004E7B137D077C007F010202F00E
:0B085C007B147D037C007F010205E09F
:10069C008F558E548D538C52752200752300752402
:0C06AC00527B157D077C007F010202F0EC
:0B0867007B167D037C007F010205E092
:10075E008F6A75220075230075246A7B177D047CD1
:06076E00007F010202F011
:0803C5008F308B318A3289333D
:1003CD00753424EF243DF536E433F5357D247C007A
:1003DD007F0112051D7F181207DFAF301207DF7482
:1003ED00FC2534F534AF341534EF6025AB31AA322A
:1003FD00A9331201502536F536E43535F53505337B
:10040D00E5337002053214F9120150FF1207DF8037
:0C041D00D4E535FF1207DFAF360207DF21
:100774008F6B75220075230075246B7B197D047CB7
:06078400007F010202F0FB
:10078A008F6C75220075230075246C7B1A7D047C9E
:06079A00007F010202F0E5
:100646008F3C8C3D8D3E8A3F8B4075220075230082
:0E06560075243C7B1B7D087C007F010202F0B6
:1007A0008F6D75220075230075246D7B1C7D047C84
:0607B000007F010202F0CF
:0B0872007B1D7D037C007F010205E080
:100704008F418D427522007523007524417B1E7D27
:08071400057C007F010202F0E8
:1007B6008F6E75220075230075246E7B1F7D047C69
:0607C600007F010202F0B9
:060026008B148A158916F7
:10002C0012015064EF600302014690000112016955
:10003C0064016003020146900002120169F460033E
:10004C00020146900003120169F46003020146901C
:10005C000004120169F460030201469000051201CC
:10006C0069F460030201469000061201696407609E
:10007C0003020146900007120169FE90000812016C
:10008C00697C002400F51AEC3EF519E92407F9E423
:10009C003AFAE9251AF9EA3519FA120150FEE51671
:1000AC00251AF9E5153519FA900008120169240092
:1000BC00F518EC3EF5177F077E00E51A151AAC19FA
:1000CC00700215194C601DAB14E5162407F9E435C4
:1000DC0015FAE9251AF9EA3519FA1201502FFFE43D
:1000EC003EFE80D6EF65187003EE65177044AB14B6
:1000FC00AA15A9169000091201697BFF70067A05F2
:10010C00798480047A05798D1205B3AB14AA15A9EC
:10011C0016900007120169FE9000081201697C001C
:10012C002400F51AEC3EF519D3E51A9403E519945D
:10013C0000227BFF7A05799680067BFF7A0579A1F0
:03014C001205B3E6
:01014F00228D
:07000300026200000164002D
:1005510053987F439840D29C53890F438920438706
:1005610080AB07AA06E4F9F8FF7EE1FDFC1204D98D
:10057100EFF404F58DF58BD2AFC2AB43B810D2AC1A
:03058100D28E22F5
:1007CC005389F0438901E4F58A758CDCD2B9D2A93E
:0307DC00C28C22AA
:0F07DF008F99E56470033099F9E4F564C29922AB
:1005B3008B1B8A1C891DE51C451D451B601EAB1B3F
:1005C300AA1CA91D1201506013051DE51D7002052B
:0D05D3001C14F9120150FF1207DF80DA221C
:03002300020429AB
:0E042900C0E0C083C082C0D075D00830983FBC
:10043700859913C298E56220E735C3E5639432E5F1
:100447006294005027758A00758CDCE563456270FD
:1004570002D28C0563E563AE627002056214240064
:0F046700F58274003EF583E513F0800343628055
:10047600309905C299756401D0D0D082D083D0E07E
:010486003243
:03000B0002048765
:10048700C0E0C0F0C083C082C0D075D000C000C03B
:1004970001C002C003C004C005C006C00743628094
:1004A700C28C758A00758CDC7B017A00790012009A
:1004B70026756200756300D007D006D005D004D03A
:1004C70003D002D001D000D0D0D082D083D0F0D0DA
:0204D700E03211
:1002700002000EE493A3F8E493A34003F68001F296
:1002800008DFF48029E493A3F85407240CC8C3338F
:10029000C4540F4420C8834004F456800146F6DF5E
:1002A000E4800B0102040810204080900003E47EEB
:1002B000019360BCA3FF543F30E509541FFEE49353
:1002C000A360010ECF54C025E060A840B8E493A31A
:1002D000FAE493A3F8E493A3C8C582C8CAC583CA45
:1002E000F0A3C8C582C8CAC583CADFE9DEE780BEFD
:01000A0000F5
:10015000BB010689828A83E0225002E722BBFE02AD
:09016000E32289828A83E49322E0
:10016900BB010CE58229F582E5833AF583E022504B
:1001790006E92582F8E622BBFE06E92582F8E22295
:0D018900E58229F582E5833AF583E49322AF
:1004D900C2D5E830E70FB2D5E4C39BFBE49AFAE44E
:1004E90099F9E498F8EC30E717B2D512050F120123
:1004F900D2E4C39BFBE49AFAE499F9E498F88003FF
:100509001201D230D50DE4C39FFFE49EFEE49DFDA8
:04051900E49CFC2240
:1001960075F008758200EF2FFFEE33FECD33CDCC20
:1001A60033CCC58233C5829BED9AEC99E5829840A3
:1001B6000CF582EE9BFEED9AFDEC99FC0FD5F0D680
:1001C600E4CEFBE4CDFAE4CCF9A88222B800C1B9AA
:1001D6000059BA002DEC8BF084CFCECDFCE5F0CBE8
:1001E600F97818EF2FFFEE33FEED33FDEC33FCEB21
:1001F60033FB10D703994004EB99FB0FD8E5E4F9DC
:10020600FA227818EF2FFFEE33FEED33FDEC33FCC8
:10021600C933C910D7059BE99A4007EC9BFCE99ABC
:10022600F90FD8E0E4C9FAE4CCFB2275F010EF2F01
:10023600FFEE33FEED33FDCC33CCC833C810D70701
:100246009BEC9AE899400AED9BFDEC9AFCE899F83C
:0E0256000FD5F0DAE4CDFBE4CCFAE4C8F922CF
:00000001FF
