:030000000212A247
:0C12A200787FE4F6D8FD758131020D1D47
:1008FB00536D6F61666C696500323032332F30385F
:10090B002F3032370041534349493A00434F444556
:10091B003A0000784CC48484000000FC0C040000F6
:10092B0000F83CE08080C0603018F0000000001040
:10093B00F8080CE42426260602FE03000000000043
:10094B000000E0C0406000E0C0600000002000003C
:10095B0000C000800000C080C04000406030109894
:10096B00888888881830604000000000000000C0B4
:10097B0060207018080C040484F41C0404040404A0
:10098B000602F21E0202020282FE020202020206AC
:10099B00F41C000C0C04060308080F0904040404DF
:1009AB001C07000001010000000701000000007C93
:1009BB002720282D272020202F39000000000000A1
:1009CB00020301070004070101060C0001000004EB
:1009DB0026231F190C0603070C1810000003E98DC2
:1009EB0084C4641D03020000000000000000000727
:1009FB00040404745C40C0F88F80808080C0404049
:100A0B00705F4140404040705F4040404040603824
:100A1B000F00000000E01008080810E000000000C4
:100A2B000000E01008080810E00000C0308888883B
:100A3B0088000000C03010080808081030C0000003
:100A4B00F800000000000000F80808080808000083
:100A5B00F808080808081020C0000000FC242464D3
:100A6B00A42424A4E464243C000404F454545E54ED
:100A7B0054545E5454F404040000000000000000C1
:100A8B00000000000000000000000000000000005B
:100A9B0000000000000F10202020100F000030304D
:100AAB0000000011222222190700000F1120202024
:100ABB00110F00000718102020202010180700002D
:100ACB003F202020202020003F2121212120000039
:100ADB003F20202020201008070040301F084969C4
:100AEB003F0909097F090909082024157D151517E8
:100AFB007D15555D751524200000000000000000D9
:100B0B0000000000000000000000000000000000DA
:100B1B0000000000000000000000000000000000CA
:100B2B0000000000000000000000000000000000BA
:100B3B0000000000000000000000000000000000AA
:100B4B00000000000000000000000000000000009A
:100B5B00000000000000000000000000000000008A
:100B6B000000000000000000000000C070180C0422
:100B7B00060203010101FF0000000000000000005D
:100B8B00000000000000000000000000000000005A
:100B9B000000000000902040F010D01010F000E09A
:100BAB0000F00000106040008080808080F080901A
:100BBB00A08010D01010D05050D05050D01010D06A
:100BCB0010109090909090D0B0909090909090103A
:100BDB00000000000000000000000000000000000A
:100BEB0080E020301010180808081F0100000000DA
:100BFB000000000000F80F000000000000000000E3
:100C0B0000000000000000000000000000000000D9
:100C1B000000000000C13B009F603F40C09F003FB1
:100C2B0000FF000202FEC0E084847C44441FE0808D
:100C3B0000E000FF8080BF92929F9292BF8080FF66
:100C4B000000FF808080FF949494FF808080FF00E1
:100C5B00000000000000000000000080C040407C4D
:100C6B0047C2C2C2C2C6C682828202000000000016
:100C7B00000000C0780F0000000000000000000022
:100C8B000000000000000000000000000000000059
:100C9B000000000000010001000000000000010145
:100CAB000101000001000000000000000000000135
:100CBB000100000000000000000000000000000127
:100CCB000000010000000000000000000000010017
:100CDB0000000000000000000000001F101030207A
:100CEB002020202020202020202020202030101009
:100CFB00180E0301000000000000000000000000BF
:100D0B0000000000000000000000000000000000D8
:020D1B000000D6
:1011D200EF4E60157D087C07ED1DAA0470011C4AC4
:0911E20070F6EF1F70EA1E80E7B1
:0111EB0022E1
:100D1D007508201212947F011212C17F0112109FCB
:100D2D00121148750C10E4FBFDFF120F93750C109A
:100D3D007B01E4FD7F12120F93750C107B02E4FD15
:100D4D007F24120F93750C107B03E4FD7F36120F79
:100D5D0093750C107B04E4FD7F48120F93750C10F6
:100D6D007B05E4FD7F5A120F93750C107B06E4FD95
:100D7D007F6C120F937BFF7A0879FB750E107D0245
:100D8D007F081210517BFF7A097904750E107D04CE
:100D9D007F141210517BFF7A097910750E107D06A4
:100DAD00E4FF1210517BFF7A097917750E107D063D
:100DBD007F3F121051751510AB087D067F30120E56
:100DCD00940508E508D3947E4003750820E508FBDB
:100DDD007A00750D03750E107D067F67120FF47F77
:0C0DED00F47E011211D2121148020D2DEB
:100003000000000000000000002F000000000700B7
:10001300070000147F147F1400242A7F2A12006231
:1000230064081323003649552250000005030000DD
:1000330000001C224100000041221C000014083E65
:1000430008140008083E0808000000A0600000082B
:10005300080808080000606000000020100804027F
:10006300003E5149453E0000427F4000004261513D
:100073004946002141454B31001814127F100027D7
:1000830045454539003C4A4949300001710905039A
:1000930000364949493600064949291E00003636CB
:1000A300000000005636000000081422410000142E
:1000B300141414140000412214080002015109060B
:1000C30000324959513E007C1211127C007F49498C
:1000D3004936003E41414122007F4141221C007FBD
:1000E30049494941007F09090901003E4149497ACB
:1000F300007F0808087F0000417F41000020404145
:100103003F01007F08142241007F40404040007FB0
:10011300020C027F007F0408107F003E4141413EF4
:10012300007F09090906003E4151215E007F09193C
:1001330029460046494949310001017F0101003F39
:100143004040403F001F2040201F003F4038403FB9
:10015300006314081463000708700807006151491D
:10016300454300007F41410000552A552A550000B0
:1001730041417F000004020102040040404040402E
:10018300000001020400002054545478007F4844C6
:10019300443800384444442000384444487F0038FD
:1001A3005454541800087E0901020018A4A4A47C26
:1001B300007F080404780000447D400000408084F0
:1001C3007D00007F102844000000417F4000007C38
:1001D30004180478007C0804047800384444443844
:1001E30000FC242424180018242418FC007C080490
:1001F300040800485454542000043F444020003C69
:100203004040207C001C2040201C003C4030403CEF
:10021300004428102844001CA0A0A07C004464547F
:100223004C441414141414140000000000000000C3
:100233000000000000000000000000F800000000C3
:10024300000000333000000000100C06100C060004
:10025300000000000000000040C07840C07840006B
:10026300043F04043F040400007088FC08300000CD
:10027300001820FF211E0000F008F000E018000025
:1002830000211C031E211E0000F0088870000000DE
:100293001E2123241927211010160E000000000030
:1002A3000000000000000000000000E0180402004D
:1002B300000000071820400000020418E0000000BE
:1002C3000040201807000000404080F080404000BC
:1002D3000202010F01020200000000F00000000012
:1002E3000101011F010101000000000000000000E6
:1002F30080B070000000000000000000000000005B
:1003030000010101010101010000000000000000E3
:10031300003030000000000000000000806018047E
:10032300006018060100000000E010080810E0005B
:10033300000F102020100F00001010F80000000024
:100343000020203F2020000000700808088870006B
:1003530000302824222130000030088888483000EB
:100363000018202020110E000000C02010F800000B
:1003730000070424243F240000F8088888080800A4
:100383000019212020110E0000E0108888180000B9
:10039300000F112020110E0000380808C83808008B
:1003A3000000003F0000000000708808088870000B
:1003B300001C222121221C0000E010080810E0008C
:1003C3000000312222110F00000000C0C000000015
:1003D300000000303000000000000080000000003A
:1003E3000000806000000000000080402010080032
:1003F30000010204081020004040404040404000FB
:1004030004040404040404000008102040800000D5
:100413000020100804020100007048080808F000DA
:100423000000003036010000C030C828E810E000AA
:100433000718272423140B000000C038E000000035
:10044300203C23020227382008F88888887000009F
:10045300203F202020110E00C03008080808380073
:10046300071820202010080008F808080810E000EA
:10047300203F202020100F0008F88888E80810008B
:10048300203F20202320180008F88888E80810005F
:10049300203F200003000000C03008080838000097
:1004A30007182020221E020008F808000008F80898
:1004B300203F210101213F20000808F8080800001F
:1004C3000020203F2020000000000808F808080052
:1004D300C08080807F00000008F888C028180800CA
:1004E300203F20012638200008F808000000000003
:1004F300203F20202020300008F8F800F8F80800FA
:10050300203F003F003F200008F830C00008F808F3
:10051300203F200007183F00E01008080810E00003
:100523000F10202020100F0008F808080808F0001A
:10053300203F210101010000E01008080810E0003D
:100543000F18242438504F0008F8888888887000D2
:10055300203F2000030C3020007088080808380072
:100563000038202121221C00180808F80808180068
:100573000000203F2000000008F808000008F808E9
:10058300001F202020201F000878880000C838089A
:10059300000007380E010000F80800F80008F80012
:1005A300033C0700073C03000818688080681808AC
:1005B30020302C03032C30200838C800C83808002A
:1005C3000000203F2000000010080808C838080079
:1005D3002038262120201800000000FE020202001D
:1005E3000000007F40404000000C30C000000000CD
:1005F300000000010638C00000020202FE000000F5
:10060300004040407F00000000000402020204009A
:1006130000000000000000000000000000000000D7
:1006230080808080808080800002020400000000BF
:1006330000000000000000000000808080800000B7
:100643000019242222223F2008F8008080000000A5
:10065300003F112020110E00000000808080000068
:10066300000E112020201100000000808088F80077
:10067300000E112020103F200000808080800000A9
:10068300001F222222221300008080F0888888180D
:100693000020203F20200000000080808080800018
:1006A300006B94949493600008F8008080800000AD
:1006B300203F210000203F20008098980000000088
:1006C3000020203F202000000000008098980000B8
:1006D30000C08080807F000008F8000080808000D8
:1006E300203F24022D302000000808F800000000FD
:1006F3000020203F202000008080808080808000B8
:10070300203F20003F20003F808000808080000049
:10071300203F210000203F200000808080800000D7
:10072300001F202020201F00808000808000000008
:1007330080FFA12020110E00000000808080800037
:10074300000E112020A0FF80808080008080800028
:1007530020203F2120000100000080808080800055
:100763000033242424241900008080E080800000CA
:100773000000001F20200000808000000080800017
:10078300001F202020103F20808080000080808078
:1007930000010E3008060100808000800080808008
:1007A3000F300C030C300F0000808000808080002D
:1007B3000020312E0E312000808080000080808058
:1007C30080818E7018060100008080808080800008
:1007D3000021302C2221300000000000807C020226
:1007E30000000000003F404000000000FF00000048
:1007F30000000000FF0000000002027C80000000F7
:100803000040403F00000000000601010202040412
:100813000000000000000000000202F2121212F2B7
:10082300020202FE020202000000000F0404040F91
:100833000040807F00000000000000F8888C8A8957
:10084300888888F800000000000000FF4444444406
:10085300444444FF00000000100C4444444445C693
:100863004444444444140C008040201E2040407FF4
:10087300444444444440400000000C30C00001069E
:100883000080700E000000008080404020110A04A8
:100893000A1120404080800000F80C0B0808F84043
:1008A300308F080808F80000007F212121217F00F4
:1008B30000004380403F000000F808080808887FD4
:1008C3008808080808F8000000FF00080402010077
:1008D3000001024C807F0000100C44241484452640
:1008E3004484142444140C00040402FE4544444488
:0808F300444445FE0204040028
:1011EC00EF4E60157D087C07ED1DAA0470011C4AAA
:0911FC0070F6EF1F70EA1E80E797
:0112050022C6
:0C111200F582E43583F583E493FF7D0152
:10111E008F1A8D1B1212767F78121193121285E59B
:10112E001B60047F408002E4FF121193121285AF00
:0A113E001A1211931212850212AE6C
:0E129400E4FD7FAE12111EE4FD7FAF02111EBD
:0912B800EF4440FFE4FD02111EA9
:101236008F2DE4FD7F8112111EE4FDAF2D02111EDC
:101246008F2EE4FD7F2012111EE4FDAF2E02111E2B
:101256008F2FE4FD7FA812111EE4FDAF2F02111E91
:101206008F278D28E4FD7FD512111EE528C454F0E2
:081216002527FFE4FD02111E73
:10121E008F298D2AE4FD7FD912111EE52AC454F0C0
:08122E002529FFE4FD02111E59
:1011B4008F2B8D2CE4FD7FDA12111EE52CC43354E1
:0E11C400E0FFE52BC454F02FFFE4FD02111EE6
:101266008F30E4FD7FD312111EE4FDAF3002111E54
:1010DB008F31E531700BFD7FDB12111EE4FDFF80BC
:1010EB0022E531B4010DE4FD7FDB12111EE4FD7F1F
:1010FB00208010E531B4020EE4FD7FDB12111EE4FB
:07110B00FD7F3012111E22CE
:0912C100EF24A6FFE4FD02111E5A
:10109F008F09E5097005FD7FC08026E509B40106BB
:1010AF00E4FD7FC88009E509B4020DE4FD7FC0129D
:1010BF00111EE4FD7FA18010E509B4030EE4FD7F4E
:0C10CF00C812111EE4FD7FA012111E22A9
:10116F008F19ED24B0FFE4FD12111EE51954F0C4E0
:10117F00540F4410FFE4FD12111EE519540FFFE444
:04118F00FD02111E2E
:0712CA00E4FD7FAF02111EDD
:0712D100E4FD7FAE02111ED7
:10114800E4F509AD09E4FF12116FE4F50A7D01E445
:10115800FF12111E050AE50AC3948040F00509E54F
:0611680009C3940840DDFC
:01116E00225E
:060E94008F128D138B1478
:100E9A00E515B40808751606751708800BE515B42C
:100EAA00100675160875171074E02514F514AD139D
:100EBA00AF1212116FE4F518E517131313541F85B7
:100ECA0016F0A4FFC3E5189FE5F06480F8748098D3
:100EDA00504EE5188516F084E5F0700FE5176408A2
:100EEA006009AD130513AF1212116FE517B408109C
:100EFA0075F006E514A42403F582E5F034008013A6
:100F0A00E517B4101775F010E514A4242BF582E543
:100F1A00F03402F583E5822518121112051880981B
:010F2A0022A4
:080FF4008F098D0A8A0B8B0C9A
:100FFC00E50EB40808750F06751008800BE50EB4E5
:10100C001006750F08751010E4F511E511C3950D58
:10101C005032AE0BAF0C7C007D0A120E3FED24302B
:10102C00FB850E15AD0AAF09120E94E50F2509F5D7
:10103C0009AE0BAF0C7C007D0A120E3F8E0B8F0C91
:04104C00051180C743
:01105000227D
:0A1051008F098D0A8B0B8A0C890DA4
:10105B00E50EB40808750F06751008800BE50EB485
:10106B001006750F08751010AB0BAA0CA90D120DFD
:10107B00F96020050DE50D7002050C14F9120DF940
:10108B00FB851015AD0AAF09120E94E50F2509F576
:03109B000980D5F4
:01109E00222F
:060F93008F098D0A8B0B93
:100F9900E50CB41006750D10750E10E4F50FE50E8D
:100FA900131313541F850DF0A4FFC3E50F9FE5F03C
:100FB9006480F87480985032E50F850EF084E5F06E
:100FC9007009AD0A050AAF0912116FE50EB4101ABE
:100FD900E50BC43354E0241BF582E43408F583E5BA
:0A0FE90082250F121112050F80B4CB
:010FF30022DB
:060F2B008F1C8D1D8B1EC2
:100F3100E4F523F524E51F131313541FFFE51F5494
:100F41000760047E0180027E00EF2EF51FE4F52587
:100F5100E525C3951F503AE525251DFDAF1C12114E
:100F61006FE4F526E526C3951E5022AB20AA21A9E0
:100F7100220524E524AE237002052314F5828E8315
:100F8100120E12FF7D0112111E052680D705258044
:010F9100BFA0
:010F9200223C
:0112D80022F3
:0F127600D291D2901212D8C2911212D8C29022E5
:0A12AE00C291D2901212D8D2912200
:10119300E4FEC290EF30E704D2918002C2911212B2
:1011A300D8D2901212D8C290EF25E0FF0EBE08E20B
:0111B3002219
:0F128500D2911212D8D2901212D8C2900212D85F
:100DF900BB010689828A83E0225002E722BBFE02F8
:090E0900E32289828A83E493222A
:100E1200BB010CE58229F582E5833AF583E0225095
:100E220006E92582F8E622BBFE06E92582F8E222DF
:0D0E3200E58229F582E5833AF583E49322F9
:100E3F00BC000BBE0029EF8DF084FFADF022E4CC97
:100E4F00F875F008EF2FFFEE33FEEC33FCEE9DEC60
:100E5F00984005FCEE9DFE0FD5F0E9E4CEFD22EDA6
:100E6F00F8F5F0EE8420D21CFEADF075F008EF2FF0
:100E7F00FFED33FD4007985006D5F0F222C398FDE1
:050E8F000FD5F0EA227E
:00000001FF
